:020000040000FA
:06000000BEEF0AF0120041
:020006000000F8
:0800080040EC05F0FB0EDBCF1C
:10001000F3FFDB06F35000090AE08EEC05F0FA0E60
:10002000F9EC05F0F3E1151CF1E1010E01D0000E31
:100030006FEF05F040EC05F03B0EE12402E3E168D0
:10004000E652E16E010EDB6A020EDB6AF90EDBCFCF
:10005000F6FFFA0EDBCFF7FFFB0EDBCFF8FF080051
:10006000F550DF6EDF5002E193EF04F0250EDF5C08
:1000700002E086EF04F0030EDB6A040EDB6A050E75
:10008000DB6A060EDB6A070EDB6AA8EC04F02D0EB5
:10009000DF5C0CE02B0EDF5C09E0200EDF5C06E08D
:1000A000230EDF5C03E0300EDF5C1AE1DF50300A24
:1000B00014E0130A0FE0030A0AE00B0A05E0060A3F
:1000C000E4E1030EDB80E1D7030EDB82DED7030E13
:1000D000DB84DBD7030EDB86D8D7030EDB88D5D7CE
:1000E0002A0EDF5C1BE1A4EC04F0F2EC04F010E05B
:1000F000030EDB8006680768130EDBCF0BF0140ECF
:10010000DBCF0CF016EC0AF0040E04C0DBFF03D0CA
:10011000130EDBEC04F0A8EC04F00BD0090EDB6A44
:1001200049EC05F003E0BDEC05F0FAD7090EDBEC75
:1001300004F0030EDBB0DB982E0EDF5C1BE1A8ECB5
:1001400004F02A0EDF5C0BE1A4EC04F0F2EC04F006
:1001500003E1130E2DEC05F0A8EC04F00BD0090E12
:10016000DB6A49EC05F003E0BDEC05F0FAD7090EB7
:100170002DEC05F0680EDF5C07E1A8EC04F0680EDA
:10018000DF5C1DE1030E18D0740EDF5C17E07A0E01
:10019000DF5C14E0480EDF5C06E0540EDF5C03E039
:1001A0005A0EDF5C02E1020E07D06C0EDF5C03E04A
:1001B0006A0EDF5C04E1010E80EC05F0C9DBDF5064
:1001C0006E0A01E17FD31E0A01E192D1200A01E10A
:1001D0008FD13F0A01E149D11A0A01E146D10D0A46
:1001E00001E143D1200A01E140D13A0A01E13DD1C8
:1001F000200A01E13AD1260A01E135D10D0A01E1D7
:1002000032D11A0A01E1D9D0200A4AE0300A1FE0AF
:10021000460A0EE0250A01E083D3D950F90FE96EB2
:10022000FF0EDA20EA6E010EEE5E000EEE5AEE5A76
:100230008EEC05F0250EE66E95DB03E1151C01E161
:1002400069D38AEC05F001E26BD3DB2A69D3080E8F
:10025000DB6A040EDB50010806E2040EDB0452ECFC
:1002600005F0DB508BDB080EDB5009E0030EDB50A2
:10027000010B05E172DB01E04DD3080EDB6A64DBA4
:10028000EFCFDFFF02EC06F003E1151C01E142D3E2
:100290008AEC05F001E3DB2A60DB01E141D33AD3CC
:1002A000070EDB5002080FE1CEEC05F0030E95ECD3
:1002B00005F00E0EEECFDBFF0F0EEECFDBFF100EC4
:1002C000EECFDBFF20D0F70EDBCF17F0F80EDBCF41
:1002D00018F0020E175E000E185AF70E17C0DBFF5B
:1002E000F80E18C0DBFF17C0E9FF18C0EAFF85EC65
:1002F00005F0166A0E0E14C0DBFF0F0E15C0DBFFF3
:10030000100E16C0DBFF0E0EDBCFE6FF0F0EDBCFAD
:10031000E6FF100EDBCFE6FFF1EC09F0E552E55207
:10032000E552130E05C0DBFF140E06C0DBFF060E00
:10033000DB5005E0130EC9EC05F001E26ADBEDECE1
:1003400005F002E2130E37DBB0EC05F006E0040E18
:10035000C9EC05F002E2050E2EDB030EDBB005D082
:10036000FCDA01E0D7D2080EDB6A090EDB6A0E0E5A
:10037000DBCFF6FF0F0EDBCFF7FF100EDBCFF8FF62
:100380000800F550DF6EDF5014E0F3EC05F011E2E9
:1003900002EC06F003E1151C01E1BCD2BBDB01E37A
:1003A000DB2A090EDB2AD9500E0FE96E000ECBDBDB
:1003B000E7D7D3DA01E1B4D2ADD2C6DA110EEECF6F
:1003C000DBFF120EEDCFDBFF110EDBCFE6FF120ECF
:1003D000DBCFE6FFE3EC09F0E552E552130EF3CF75
:1003E000DBFF140EF4CFDBFF060EDB5004E0130E30
:1003F000D0DB01E20EDBEDEC05F002E2130EDBDAFE
:10040000AFDB05E0040EC5DB02E2050ED4DA030E15
:10041000DBB005D0A2DA01E07DD2080EDB6A090E5E
:10042000DB6A110EDBCFE9FF120EDBCFEAFFEFCF65
:10043000DFFFDF5014E0D7DB12E2E4DB03E1151C41
:1004400001E168D267DB01E3DB2A090EDB2A110E2A
:10045000DB2ADBCFE9FF120EE8E3DB2AE6D77DDA01
:1004600001E15ED257D2030EDB8E070EDB0410E1F2
:1004700095DB040E5ADB0A0EEECFDBFF0B0EEECF40
:10048000DBFF0C0EEECFDBFF0D0EEECFDBFF6CD0F3
:10049000070EDB5003082CE1030EDBAE0DD0B2DA01
:1004A000020E76DAEFCF14F0156A166A176A14AEE8
:1004B00039D01568166835D0F70EDBCF15F0F80E79
:1004C000DBCF16F0020E155E000E165AF70E15C0A1
:1004D000DBFFF80E16C0DBFF15C0E9FF16C0EAFF10
:1004E000EFCF14F00A0E14C0DBFF0B0EDB6A38D01E
:1004F000070EDB50020809E1030EDBAE04D059DB26
:1005000016AE10D00ED055DB0DD0030EDBAE12D0E0
:1005100079DA020E3DDAF9DA166A176A15AE02D0F8
:1005200016681768E2DA0C0E16C0DBFF0D0E17C056
:10053000DBFF1AD0F70EDBCF16F0F80EDBCF17F08B
:10054000020E165E000E175AF70E16C0DBFFF80EED
:1005500017C0DBFF16C0E9FF17C0EAFFD6DAC5DA1D
:100560000C0EDB6A0D0EDB6A060EDB5005E1010E98
:10057000F36E050EF3CFDBFF150EDB6A160EDB6A9A
:10058000D950370F146E000EDA20156E390E14C0D4
:10059000DBFF3A0E15C0DBFF380EDB6A080EDB6AA4
:1005A0000A0EAEDADF50780A12E0200A10E0280ABC
:1005B0000CE0200A0AE03F0A06E00D0A02E0200AE9
:1005C00008E1020E05D0080E03D0080EDF26100E3B
:1005D00097DA030EDBBE02D0DB92DB94DB50800B9C
:1005E00024E08ADAD890030EEB50000A08E6000EE9
:1005F000EE5C000EEE58000EEE58000EEE5815E2BE
:1006000013DA09680A680B680C6877EC09F00A0EBF
:1006100000C0DBFF0B0E01C0DBFF0C0E02C0DBFFD6
:100620000D0E03C0DBFF2D0E08D0030EDBA202D09F
:100630002B0E03D0DBA408D0200EF36E170EF3CFE1
:10064000DBFF150EDB2A02D0170EDB6A050EDB502E
:1006500003E1B7D901E189D0D00E146E150E156EE5
:10066000000E166E070EDBCF17F0186A196A1A6AA9
:1006700017C009F018C00AF019C00BF01AC00CF02E
:10068000D3D943EC0AF014500024F36E1550012026
:10069000F46E16500220F86EF4CFF7FFF3CFF6FF9A
:1006A0000800090EF5CFDBFF580EDF5C0FE1610E8D
:1006B000F36E090E7BD90AE3200E146E090EDBCF10
:1006C000E7FF1450E75E090EE7CFDBFF070EDBCF35
:1006D00014F0156A166A176A0FDA14C009F015C00B
:1006E0000AF016C00BF017C00CF0EECF04F0EECFFE
:1006F00005F0EECF06F0EFCF07F043EC0AF007C0AD
:10070000EDFF06C0EDFF05C0EDFF04C0EFFF390EA1
:10071000DBCFE9FFDB063A0EDBCFEAFF01E2DB06C7
:10072000090EDBCFEFFF150EDB2A4BD995E1030E47
:10073000DBA61DD06F0EDF5C06E1C1D918E3150EF4
:10074000DB285BDA14D0780EDF5C09E0580EDF5C42
:1007500006E0620EDF5C03E0420EDF5C08E1020EA1
:10076000F36E160EF3CFDBFF02D0150EDB6A030E1D
:10077000DB50100B0EE0040EDBCF14F0050EDB5047
:10078000D880145406E2060EDB5003E1040EDB5061
:1007900034DA95D90AE2050EDBCFE7FF150EDB5000
:1007A000E75E050EE7CFDBFF02D0050EDB6A040E25
:1007B000DBCF14F0160E45D9D880145414E2160E6F
:1007C000DBCFE6FF150EDBCFE6FF040EDBCFE6FF47
:1007D000050EDB50E552E75CE552D880E754E55260
:1007E000D880E7545FD9030EDB50010B0BE1080EF4
:1007F000DB5008E0B2D801E08DD0080EDB50BED847
:10080000080EDB6A170EDB5007E088D9170EF1D906
:1008100003E1151C01E17ED0160EDB5016E07ED9F7
:10082000300EE66E9FD802E1151C74E077D9DFCF59
:10083000E6FF35EC09F0E552E552E552F4CF15F04C
:100840000001F31C02E1151C65E0050EDBCF14F07E
:10085000160EDB50D880145409E2050EDBCFE7FFFB
:10086000160EDB50E75E050EE7CFDBFF300EE66EBF
:10087000050ECBD94FE1390EDB2ADBCFE9FF3A0E6B
:1008800001E3DB2ADBCFEAFF090EEFCFDBFFDB5012
:100890000EE044D9090EADD902E1151C3BE0390E3A
:1008A000DB2ADBCFE9FF3A0EEDE3DB2AEBD755D8A5
:1008B00031E1160EDBCFE6FF080EC3D8E552E72480
:1008C0005DD82ED0070EDB50030A1CE0010A14E0AD
:1008D000030A07E07BD9DBCFEEFF020EDBCFEDFF93
:1008E0001FD0F5D8196A17AE02D0186819682CD82D
:1008F000BCD819C0EEFF14D0EAD817BE186824D8A7
:10090000B4D80ED063D9DBCFEFFF0AD07BD905E195
:10091000151C03E1F368F46810D0FCD801E3DB2A6E
:1009200079D92FEF00F0010EDBCF14F0020EDBCFF0
:1009300015F014C0F3FF15C0F4FF3B0EE15C02E2BA
:10094000E16AE552E16ECBD029D9020E95EF05F0B0
:1009500061D90800F550DF6E1200200EE66E080E19
:1009600005EF06F035EC09F0E552E552E552F3CF1C
:1009700014F0F4CF15F00001F31C1200146E156A88
:10098000D950010F4DD91450EE261550ED2212000A
:10099000185E000E195AF70E18C0DBFFF80E19C0CA
:1009A000DBFF18C0E9FF19C0EAFF1200DBCFF4FF3C
:1009B000F350F45C1200DB50E76E040EE7CFDBFF70
:1009C00012000A0EDBCF14F00B0EDBCF15F00C0E6D
:1009D000DBCF16F00D0EDBCF17F0145015101610EC
:1009E00017101200130EEECFDBFF140EEDCFDBFF5E
:1009F000130EDBCF14F0140EDBCF15F00001800EC8
:100A000015141200F70EDBCF18F0F80EDBCF19F03B
:100A10001200050EDB50E66ED950130F01D9E552D6
:100A2000E750EE6EED6A12000A0EDBCF04F00B0EFB
:100A3000DBCF05F00C0EDBCF06F00D0EDBCF07F0A1
:100A40001200DBCFE6FF150EDBCFE6FF050EDB5015
:100A5000E552E724E552E7241200DB50CED8010E20
:100A6000F36E060EF3CFDBFF1200EE50EFCFEAFF7E
:100A7000E96E16C0EEFF17C0EEFF18C0EEFF1200C1
:100A8000D9CFE6FFDACFE6FFE1CFD9FFE2CFDAFF39
:100A90001200DFCFE6FFE66A9CEC0AF0E552E55271
:100AA000F3501200E76E080EE7CFDBFF1200EECF27
:100AB00014F0EECF15F0EFCF16F0176A1200050E06
:100AC000DBCF14F0150EDB50D88014541200010E49
:100AD000DBCF16F0020EDBCF17F0186A1200E552DA
:100AE000E5CFDAFFE7CFD9FF12000A0E14C0DBFF13
:100AF0000B0E15C0DBFF1200D9500A0F10EF06F0E5
:100B0000F36E070EF3CFDBFF1200EECF14F0EFCF42
:100B100015F01200010EDB2A020E1200FC0EDBCFD4
:100B2000E6FFFD0EDBCFE6FF1200145E000E155A45
:100B3000F70E14C0DBFFF80E15C0DBFF14C0E9FF91
:100B400015C0EAFF1200DA20EA6EEF2AEECFF6FFB8
:100B5000000EEF22EECFF7FFEF22EECFF8FF1200EC
:100B6000040EDBCFE6FF130EDB50E552E75C9ADFA5
:100B7000DB5004DF060EDB501200090EDB500A0DBD
:100B8000F350DF24D00FE76E090EE7CFDBFFA8EFAD
:100B900004F0DB50F36E050ED6EF04F0F70EDBCF5A
:100BA00014F0F80EDBCF15F01200DFCFE6FFB2EF46
:100BB00004F028DF030EECDE57EF05F004EC00F044
:100BC000E552E552E552E55200091200BDDEEE5055
:100BD000EFCFEAFFE96E010E1200130EDB50F36E49
:100BE000040ED6EF04F0040EDB50F36E090ED6EFC0
:100BF00004F0DBCFE6FFB2EF04F0E76E050EE7CFBF
:100C0000DBFF12008BDFD5EF05F0DBCFE6FF86DFE1
:100C1000DEEF05F0D950F90FE96EFF0EA3EF05F0F6
:0A0C2000E96E000EDA20EA6E120001
:060C2A00D9CFE6FFE1CF87
:100C3000D9FF020EE12695809582958495868C8C4D
:100C4000000000008350DF6E8C9CDF50100D010E01
:100C5000F3CFDBFF8C8C000000008350DF6E8C9C98
:100C6000000EDB98DB9ADB9CDB9E010EDBCFE7FFFF
:100C7000DF50E712010EE7CFDBFF95909592959438
:100C80009596010EDB5000D0146E020EE15C02E27C
:100C9000E16AE552E16E1450E552E7CFD9FF120048
:100CA000D9CFE6FFE1CFD9FF030EE126010EDB6AC3
:100CB000020EDB6A8C988C8AB8DFDF6ED950010F88
:100CC000E96EDACFEAFFE80EEE1802E1030EED1846
:100CD00004E18A828A848A86FCD7010EDB2A020E0E
:100CE00001E3DB2ADFBEE8D78C9A0400010EDB6A41
:100CF000020EDB6A030EE15C02E2E16AE552E16E9C
:100D0000E552E7CFD9FF1200D9CFE6FFE1CFD9FFF7
:100D1000E652FE0EDB5002E08C9801D08C888C9A53
:100D20008C8C8C968C948C928C90000000008C5053
:100D3000DF6E000EDB90DB92DB94DB96FD0EDB506A
:100D40000F0BDF108C6E000000008C9CE552E5520A
:100D5000E7CFD9FF12008CD8FD0EDB380F0BE66E03
:100D600094D8FD0EDBCFE6FF90D87ED0959E959C63
:100D7000959A959C95909592959495968C9E8C8E2F
:100D80008C988C9A8C9C8C8C8BDF020E89D8020EEE
:100D900087D8080E85D8E66A52D80C0E81D8E66A44
:100DA0004ED8010EE66E7FD8E66A49D8020E78D892
:100DB000040E76D80E0E74D807D8E66AE66A09D80B
:100DC000E552E5528C8E1200010EE66EE66E2FEFB4
:100DD00007F04ED8FD0EDB50010812E3FE0EDB508B
:100DE0000F080EE3FD0EDB0404E1FE0EDB50C0092C
:100DF00003D0FE0EDB508009E66E010EE66E2FD8A2
:100E000033D036D8FE0EDBCFE6FFE66A28D82CD0EA
:100E10002FD833D80750300F3FD82FD80350300F7A
:100E20003BD822D025D8E652DF6ADF500BD805E048
:100E3000DF50DF2A07D830D8F8D7E55215D0010E99
:100E400053EF07F0E76EFD0EDBCFE9FFFE0EDBCFC1
:100E5000EAFFE750E926000EEA22EF5012007BDF9E
:100E6000E552E55250EF06F0E552E7CFD9FF120008
:100E7000D9CFE6FFE1CFD9FF12000A0E146E0C6E37
:100E8000FE0EDBCF07F0DAEF0AF0FE0EDBCFE6FF57
:100E90003BDFE552E5521200E66EB3DFE552120089
:100EA000E66E1FEF07F0E66E2FDFE552E55250EFDA
:020EB00006F04A
:0E0EB20031D9040EE126DE6ADD6ADECF14F0CF
:100EC000DDCF15F0FD0EDBCF16F0FE0EDBCF17F0F9
:100ED00015501718E8AE02D0173404D01650145C21
:100EE000175015581DE2020EDB6A030EDB6A020E74
:100EF000DBCF14F0030EDBCF15F0D890155004E6CD
:100F0000190E145C000E155806E2020EDB2A030EC1
:100F1000EEE3DB2AECD7DF2A010ED0E3DB2ACED7C3
:100F2000040EE15C02E2E16AE552E16EE552E7CFD0
:100F3000D9FF1200F0D88990FE0EDBCFE6FF67ECF8
:100F40000AF0E5528980E552E7CFD9FF1200C95077
:100F500012009290898094969488949A800EE66EFE
:100F6000E66AE66AAFEC09F0E552E552E55289908F
:100F7000800EE66E67EC0AF0E552B0D889806EEF1D
:100F800008F0070EB46E9590959295949596959865
:100F9000959A959C1200BFD80C0EE126D9CFE9FF97
:100FA000DACFEAFFEE6AEE6A020EDB6A030EDB6A54
:100FB000040EDB6A050EDB6A060EDB6A070EDB6ACF
:100FC000080EDB6A090EDB6A0A0EDB6A0B0EDB6AAF
:100FD000D8DFBFDFB6EC06F0090EDB6A0A0EDB6A6B
:100FE0008F0E84D8060EE7CFDBFF800E7FD8070E6A
:100FF000E7CFDBFFDB50030BE76E080EE7CFDBFF2D
:10100000060EDBCF14F0143406E3010EF36E0B0E64
:10101000F3CFDBFF02D00B0EDB6A060EDB507F0B3B
:10102000E76E060EE7CFDBFFDBCF16F0176A16BEC2
:101030001768D89016361736D89016361736080E19
:10104000DB5000011610146E17C015F0090E14C005
:10105000DBFF0A0E17C0DBFF0B0EDB500BE054D892
:10106000000E1426FE0E1522090E14C0DBFF0A0E18
:1010700015C0DBFF49D8153406E214501E08000ED7
:10108000155401E239D838D8090EDBCFE6FF0A0E35
:10109000DBCFE6FFE10E146E150E156E166A14C056
:1010A000E6FFE66E16C0E6FFD9CFE6FFDACFE6FF31
:1010B00090EC08F0176E070EE15E1750D9CFE6FFEF
:1010C000DACFE6FF12EC07F0E552E552320EE66E9B
:1010D00085EC0AF0E552E4EC06F07ED7A00EE66E51
:1010E000860EE66EE6DEE552E5521200E66E22DF7F
:1010F000E5522DDFE76E1200010EF36E020EF3CF04
:10110000DBFF030EDB6A1200090EDBCF14F00A0EC0
:10111000DBCF15F01200D9CFE6FFE1CFD9FF1200E7
:10112000D9CFE6FFDACFE6FFE1CFD9FFE2CFDAFF92
:10113000E652E652E652E652D950F90F146EFF0E0F
:10114000DA20156E020E14C0DBFF030E15C0DBFFA4
:10115000020EDBCFE6FF030EDBCFE6FFF90EDBCF9F
:10116000E6FFFA0EDBCFE6FFFB0EDBCFE6FFD95042
:10117000FC0FE66EFF0EDA20E66E1AEC00F0146E3D
:10118000070EE15C02E2E16AE552E16E1450F3CF32
:10119000DEFFF4CFDDFFFC0EDBCFE9FFFD0EDBCF82
:1011A000EAFFEF6ADECF14F0DDCF15F014C0F3FFD5
:1011B00015C0F4FF040EE15C02E2E16AE552E16E63
:0C11C000E552E5CFDAFFE7CFD9FF1200BF
:0411CC00060EF66EA7
:1011D000000EF76E000EF86E00010900F550656F05
:1011E0000900F550666F03E1656701D03DD0090045
:1011F000F550606F0900F550616F0900F550626F9E
:1012000009000900F550E96E0900F550EA6E090081
:1012100009000900F550636F0900F550646F09007B
:101220000900F6CF67F0F7CF68F0F8CF69F060C03B
:10123000F6FF61C0F7FF62C0F8FF0001635302E1EF
:10124000645307E00900F550EE6E6307F8E26407A7
:10125000F9D767C0F6FF68C0F7FF69C0F8FF000163
:0A1260006507000E665BBFD71200A1
:06126A00D9CFE6FFDACF48
:10127000E6FFE1CFD9FFE2CFDAFFFB0EDBCF14F0C0
:10128000FC0EDBCF15F00001800E15141AE1FB0EE9
:10129000DBCFE9FFFC0EDBCFEAFFEECFF3FFEDCFB4
:1012A000F4FFEE2A000EEF22F3CFE9FFF4CFEAFFBE
:1012B000FD0EDBCFEFFFEF50156AF36E15C0F4FFA4
:1012C00010D0FB0EDB50FE0806E1FD0EDBCFE6FF83
:1012D000CCEC0AF005D0FD0EDBCFE6FFF2EC0AF015
:0E12E000E552E552E5CFDAFFE7CFD9FF120065
:0212EE000450AA
:1012F0000902F3CF00F0F4CF01F00A02F350012607
:10130000000EF420026E04500B02F3500226000E71
:10131000F420036E04500C02F3500326055009021A
:10132000F3500126F4500222000E032205500A0257
:10133000F3500226F450032205500B02F35003260B
:1013400006500902F3500226F450032206500A0206
:0E135000F350032607500902F3500326120043
:02135E00D9CFE5
:10136000E6FFDACFE6FFE1CFD9FFE2CFDAFF3F0EAB
:10137000C716C66AFD0EDB50C612FB0EDB50C71245
:10138000FC0EDB50030A09E0010A04E0020A06E150
:10139000C78C04D0C78CC68801D0C688FD0EDB5030
:1013A000050A05E0010A05E19486928A03D0948635
:1013B00001D094969488949AC68AE552E5CFDAFFD4
:0613C000E7CFD9FF120087
:0A13C600FE0EE3CFE9FFFF0EE3CFB8
:1013D000EAFFF36AF46AEE5203E0F34AF42AFBD719
:1013E0001200FF0EE3CFF8FFE552FF0EE3CFF7FF49
:1013F000E552FF0EE3CFF6FFE552E66AE66AE66ADB
:101400000900F55209E0FD0EE32A05E1FE0EE32A8C
:1014100002E1FF0EE32AF4D7FD0EE3CF05F0FE0E46
:0C142000E3CF06F0FF0EE3CF07F0120050
:04142C0007C013F0F2
:1014300006C012F006500B02F4CF05F0F3CF04F013
:1014400007500C02F4CF07F0F3CF06F00B02F35075
:101450000526F4500622E86A072212500C02F350C7
:101460000526F4500622E86A07220CAE3CEF0AF08B
:101470001250065E1350075A13AE000C0B50065E56
:061480000C50075A000C9D
:0A148600036A026A016A006A200E80
:10149000E76ED89004360536063607360036013634
:1014A000023603360950005C0A5001580B500258AE
:1014B0000C50035809E30950005E0A50015A0B50C2
:0E14C000025A0C50035A042AE72EE4D71200F9
:0214CE00D9CF74
:1014D000E6FFDACFE6FFE1CFD9FFE2CFDAFFE6524F
:1014E000C950DF6E9E96C69EFD0EDB50C96EC6AE1D
:1014F00002D0FF0E03D09EA6FED7000EE552E552A5
:0A150000E5CFDAFFE7CFD9FF1200B4
:06150A00FF0EE3501C6E11
:10151000EF0E01D0F30EE76EE72E8CEF0AF00C0E03
:101520001B6EE76AE72E92EF0AF01B2E91EF0AF08E
:081530001C2E8AEF0AF01200E4
:08153800F36AF46AFF0EE124DE
:10154000E96EFF0EE220EA6EED6607D02F0EEF6423
:0C15500004D03A0EEF6001D0F32A120024
:04155C00000EF36E1C
:1015600000EE00F00D0E01D81200EA6002D0EE6A23
:0C157000FCD7F350E9601200EE6AFCD7D3
:04157C001CEE00F071
:101580002CEE00F0F86A0F9CE6EC08F0F3EC0AF0A1
:08159000CBEC07F0FBD71200C1
:08159800FF0EE350ACBA04D0D1
:1015A000AF6AAB8EAC8A949CACA2FED7AD6EF36EE4
:0415B000F46A1200C7
:0C15B400036A080EE76ED8900736033675
:1015C0000C50035C02E3036E072AE72EF7D71200E4
:1015D00030313233343536373839616263646566A9
:0115E000000A
:0315E1002564007E
:0215E4001200F3
:0215E6001200F1
:020000040030CA
:0100010002FC
:010002001FDE
:010003001EDE
:010005008278
:010006008178
:010008000FE8
:01000900C036
:01000A000FE6
:01000B00E014
:01000C000FE4
:01000D0040B2
:00000001FF
